:100000000C942A000C9447000C94B2010C94470005
:100010000C9447000C9447000C9447000C94470044
:100020000C9447000C9447000C9447000C94720108
:100030000C9447000C9447000C9447000C94470024
:100040000C9447000C9447000C9447000C94470014
:100050000C94470011241FBECFE5D8E0DEBFCDBF12
:1000600010E0A0E6B0E0EEEBF4E002C005900D92E7
:10007000AA38B107D9F710E0AAE8B0E001C01D9294
:10008000AF38B107E1F70E94DC010C945D020C94DB
:100090000000DF93CF93CDB7DEB7A7E2B0E0E7E291
:1000A000F0E08081806C8C93A6E2B0E0E6E2F0E0C4
:1000B000808180688C93A6E2B0E0E6E2F0E0808187
:1000C00087608C93A7E2B0E0E7E2F0E08081806295
:1000D0008C93CF91DF910895DF93CF930F92CDB79B
:1000E000DEB78983898187708983A7E2B0E0E7E280
:1000F000F0E08081982F987F8981892B8C93A6E2EC
:10010000B0E0E6E2F0E0808180648C93E6E2F0E02B
:100110008081882F90E0807190700097B9F3A6E2FB
:10012000B0E0E6E2F0E0808180618C93E5E2F0E00F
:100130008081882F90E00F90CF91DF910895DF9319
:10014000CF93CDB7DEB762970FB6F894DEBF0FBE80
:10015000CDBF9A8B898B89899A899E012F5F3F4FEA
:10016000B9014AE050E00E941802CE0101960E94B7
:10017000490180E690E00E94490162960FB6F8942A
:10018000DEBF0FBECDBFCF91DF910895DF93CF9338
:10019000CDB7DEB7AFE5B0E0EFE5F0E080818F7777
:1001A0008C93A1E3B0E0E1E3F0E08081877F8C9362
:1001B000A2E3B0E0E2E3F0E0808188608C93ABE5FD
:1001C000B0E0EBE5F0E0808180688C93A5E5B0E0DD
:1001D000E5E5F0E0808184608C93AFE5B0E0EFE589
:1001E000F0E0808180688C93CF91DF910895DF9358
:1001F000CF93CDB7DEB7E2E5F0E01082A9E5B0E03D
:10020000E9E5F0E0808181608C93A3E5B0E0E3E56F
:10021000F0E0808185688C93CF91DF910895DF9322
:10022000CF93CDB7DEB7ABE2B0E0EBE2F0E0808198
:1002300082608C93AAE2B0E0EAE2F0E0808188601C
:100240008C93A0E4B0E0E0E4F0E0808186688C93D9
:10025000E0E4F0E01082E9E2F0E08CE08083CF910E
:10026000DF910895DF93CF930F92CDB7DEB78983E7
:10027000EBE2F0E08081882F90E080729070009730
:10028000B9F3ECE2F0E0898180830F90CF91DF91A8
:100290000895DF93CF9300D00F92CDB7DEB79B8345
:1002A0008A8319820EC08981282F30E08A819B8140
:1002B000FC01E20FF31F80810E94320189818F5F70
:1002C00089838981282F30E08A819B81FC01E20F9C
:1002D000F31F8081882339F70F900F900F90CF91F3
:1002E000DF9108951F920F920FB60F9211242F9352
:1002F0003F934F935F936F937F938F939F93AF93AE
:10030000BF93EF93FF93DF93CF93CDB7DEB7809189
:100310008C008F5F80938C0080918C008C3079F4FE
:1003200080918D0090918E000E949F0080E00E943D
:100330006C0090938E0080938D0010928C00CF9172
:10034000DF91FF91EF91BF91AF919F918F917F913D
:100350006F915F914F913F912F910F900FBE0F9032
:100360001F9018951F920F920FB60F9211248F9322
:100370009F93AF93BF93EF93FF93DF93CF93CDB74B
:10038000DEB7A5E3B0E0E5E3F0E0908181E0892706
:100390008C9381E090E090938B0080938A00CF91C2
:1003A000DF91FF91EF91BF91AF919F918F910F904E
:1003B0000FBE0F901F901895DF93CF93CDB7DEB788
:1003C000A4E3B0E0E4E3F0E0808181608C930E94DC
:1003D000C6000E940F010E9449000E94F70080E0C1
:1003E0000E946C0090938E0080938D0080918A0013
:1003F00090918B0081309105C9F7E5E3F0E08081B1
:10040000882F90E081709070882349F082E690E018
:100410000E94490110928B0010928A00E7CF85E775
:1004200090E00E94490110928B0010928A00DECF6A
:10043000FB019F01E8944230C4F04532B4F44A30E5
:1004400029F497FB1EF4909581959F4F642F772791
:100450000E944902805D8A330CF0895D8193CB0153
:100460000097A1F716F45DE251931082C9010C9434
:100470003902DC01FC01672F71917723E1F7329794
:1004800004C07C916D9370836291AE17BF07C8F36F
:100490000895AA1BBB1B51E107C0AA1FBB1FA617CB
:1004A000B70710F0A61BB70B881F991F5A95A9F71D
:0E04B00080959095BC01CD010895F894FFCF82
:1004BE000D004C4544204F4E202D20507265737315
:1004CE006564200D004C4544204F4646202D20509B
:0A04DE00726573736564200D000061
:00000001FF
